:020000040800F2
:1000000030FE002061100008290D00082B0D0008AB
:100010002F0D0008330D0008370D00080000000008
:100020000000000000000000000000003B0D000880
:100030003D0D0008000000003F0D0008410D0008C4
:100040007B1000087B1000087B1000087B10000864
:100050007B1000087B1000087B1000087B10000854
:100060007B1000087B1000087B1000087B10000844
:100070007B1000087B1000087B1000087B10000834
:100080007B1000087B1000087B1000087B10000824
:100090007B1000087B1000087B1000087B10000814
:1000A0007B1000087B1000087B1000087B10000804
:1000B0007B1000087B1000087B1000087B100008F4
:1000C0007B1000087B1000087B1000087B100008E4
:1000D0007B100008D50F00087B1000087B1000087B
:1000E0007B1000087B1000087B1000087B100008C4
:1000F0007B1000087B1000087B1000087B100008B4
:100100007B1000087B1000087B1000087B100008A3
:100110007B1000087B1000087B1000087B10000893
:100120007B1000087B1000087B1000087B10000883
:1001300000F002F800F05AF80AA090E8000C82449F
:100140008344AAF10107DA4501D100F04FF8AFF27C
:10015000090EBAE80F0013F0010F18BFFB1A43F0A5
:1001600001031847841B0000A41B00000A444FF041
:10017000000C10F8013B13F0070408BF10F8014B06
:100180001D1108BF10F8015B641E05D010F8016B4B
:10019000641E01F8016BF9D113F0080F1EBF10F8AF
:1001A000014BAD1C0C1B09D16D1E58BF01F801CBD2
:1001B000FAD505E014F8016B01F8016B6D1EF9D555
:1001C0009142D6D37047000000230024002500266A
:1001D000103A28BF78C1FBD8520728BF30C148BFAA
:1001E0000B6070471FB51FBD10B510BD01F04DFD70
:1001F0001146FFF7F7FF00F0FEFC01F06BFD03B4C2
:10020000FFF7F2FF03BC00F08BFE000000BF01000F
:10021000A0F10102D0B2FAD1704770B503460025B3
:1002200010E000240AE0002604E0CB20FFF7EEFFF8
:10023000701CC6B20F2EF8DB601CC4B2832CF2DB3C
:10024000681CC5B29D42ECDB70BD70B50446402110
:10025000FB4801F0A0F80821F94801F09CF80025BE
:1002600017E00121F74801F096F814F0800F04D050
:100270000221F44801F08DF803E00221F14801F079
:100280008AF86006040E0121EE4801F082F8681C2D
:10029000C5B2082DE5DB0821E94801F07AF84021D4
:1002A000E74801F076F870BD70B504464021E44897
:1002B00001F071F80821E24801F06BF8002517E021
:1002C0000121E04801F067F814F0800F04D002210A
:1002D000DC4801F05EF803E00221DA4801F05BF847
:1002E0006006040E0121D74801F053F8681CC5B21E
:1002F000082DE5DB0821D24801F04BF84021D04819
:1003000001F047F870BD70B505460C461520FFF7A3
:100310009CFF2846FFF799FF2046FFF796FF70BD28
:1003200070B505460C467520FFF78FFF2846FFF78E
:100330008CFF2046FFF789FF70BD10B50446A02052
:10034000FFF783FF2046FFF780FF10BD10B504467E
:10035000A120FFF77AFF2046FFF777FF10BD10B509
:100360000446A220FFF771FF2046FFF76EFF10BD85
:1003700010B5044644F0A400FFF767FF10BD10B5A8
:10038000044644F0AE00FFF760FF10BD10B5044610
:10039000B020FFF75AFF2046FFF757FF10BD10B5FA
:1003A0000446B120FFF751FF2046FFF74EFF10BD76
:1003B00010B50446B320FFF748FF2046FFF745FF7E
:1003C00010BD10B50446B620FFF73FFF2046FFF7EB
:1003D0003CFF10BD10B50446BB20FFF736FF20469A
:1003E000FFF733FF10BD10B50446BE20FFF72DFF09
:1003F0002046FFF72AFF10BD70B506460C4615468D
:100400008120FFF722FF3046FFF71FFF8220FFF712
:100410001CFF2046FFF719FF8320FFF716FF284631
:10042000FFF713FF70BD70B506460C4615468A20CF
:10043000FFF70BFF3046FFF708FF8B20FFF705FFA4
:100440002046FFF702FF8C20FFF7FFFE2846FFF74C
:10045000FCFE70BD10B504468720FFF7F6FE20466F
:10046000FFF7F3FE10BD10B50446AD20FFF7EDFE1B
:100470002046FFF7EAFE10BD10B50446A820FFF79E
:10048000E4FE2046FFF7E1FE10BD10B50446FD2056
:10049000FFF7DBFE2046FFF7D8FE10BD10B504467F
:1004A0002620FFF7D2FE2046FFF7CFFE10BD2DE934
:1004B000F04707460C4615461E46DDE9099ADDF869
:1004C00020802120FFF7C1FE3846FFF7BEFE204600
:1004D000FFF7BBFE2846FFF7B8FE3046FFF7B5FE34
:1004E0004046FFF7B2FE4846FFF7AFFE5046FFF723
:1004F000ACFEBDE8F0872DE9F05F07460C461546D7
:100500001E46DDE90CABDDE90A892220FFF79DFEDE
:100510003846FFF79AFE2046FFF797FE2846FFF77A
:1005200094FE3046FFF791FE4046FFF78EFE4846A8
:10053000FFF78BFE5046FFF788FE5846FFF785FE13
:100540000E98FFF782FE0F98FFF77FFEBDE8F09F41
:100550002DE9F04707460C4615461E46DDE9088999
:100560002320FFF772FE3846FFF76FFE2046FFF7A5
:100570006CFE2846FFF769FE3046FFF766FE4046F0
:10058000FFF763FE4846FFF760FEBDE8F0872DE900
:10059000F04107460C465F210020FFF7B4FE3F21E3
:1005A0000020FFF7BDFE00250DE0002607E03846DD
:1005B000FFF77AFE2046FFF777FE701CC6B2602E6A
:1005C000F5DB681CC5B2402DEFDBBDE8F0812DE9FD
:1005D000F05F06460F4614461D46DDE90AAB394674
:1005E0003046FFF790FE29462046FFF799FE4FF070
:1005F000000814E04FF0000909E05046FFF754FEF0
:100600005846FFF751FE09F1010000F0FF09B81B41
:10061000401C4845F1DC08F1010000F0FF08281BF0
:10062000401C4045E6DCBDE8F09F70B55F2100202E
:10063000FFF769FE3F210020FFF772FE002529E049
:10064000001401400010014000240DE0FF20FFF7DE
:100650002BFEFF20FFF728FE0020FFF725FE0020DD
:10066000FFF722FE601CC4B2602CEFDB00240DE01B
:100670000020FFF719FE0020FFF716FEFF20FFF70E
:1006800013FEFF20FFF710FE601CC4B2602CEFDBEE
:10069000681CC5B2402DD7DB70BD1CB5FF20009093
:1006A0003F2300220C2101901046FFF790FFE0202D
:1006B000FF213F230022CDE9001018210C20FFF775
:1006C00086FF1F20F8213F230022CDE900102421BE
:1006D0001820FFF77CFFFF2007213F230022CDE9F0
:1006E000001030212420FFF772FF0020F8213F2363
:1006F0000246CDE900103C213020FFF768FFE020E2
:1007000007213F230022CDE9001048213C20FFF7BC
:100710005EFF1F2000213F230A46CDE9001054212F
:100720004820FFF754FF002000903F2302465F213E
:1007300001905420FFF74BFF1CBD2DE9F05F804670
:100740000D4616461F46DDF82890701B401CA9EB8D
:100750000701491C00FB01FB444631462846FFF7D0
:10076000D2FD49463846FFF7DBFD4FF0000A09E0AD
:100770002078FFF799FD641C2078FFF795FD641C35
:100780000AF1010ADA45F3D3BDE8F09F2DE9F05FE5
:1007900080460D4616461F46DDF8289044463146F1
:1007A0002846FFF7B0FD49463846FFF7B9FD4FF040
:1007B000000A1AE04FF0000B0FE02078FFF774FDFD
:1007C000641C2078FFF770FD641C2078FFF76CFD37
:1007D000641C0BF1010000F0FF0B701B401C58451E
:1007E000EBDC0AF1010000F0FF0AA9EB0700401C56
:1007F0005045DFDCBDE8F09F2DE9F04180460E4614
:100800001746B8F1000F03D0B8F1010F24D110E062
:1008100000240BE0E0B2FFF799FD002503E0C820BB
:10082000FFF7F4FC6D1CBD42F9D33444602CF1D3C6
:1008300012E000240DE0C4F16001C8B2FFF786FDAC
:10084000002503E0C820FFF7E1FC6D1CBD42F9D391
:100850003444602CEFD300BF00BF0020FFF776FDCB
:10086000BDE8F0812DE9F04107460C4615461E46CD
:10087000DDF818802720FFF7E8FC3846FFF714FD65
:100880002046FFF711FD2846FFF70EFD3046FFF723
:100890000BFD4046FFF708FD2F20FFF7D6FCBDE813
:1008A000F08110B52E20FFF7D0FC10BD10B501204F
:1008B000FFF765FD00240CE0E0B2FFF7CBFDC82098
:1008C000FFF7A4FCC820FFF7A1FCC820FFF79EFC9F
:1008D000641C102CF0D310BD10B510240DE0611E67
:1008E000C8B2FFF7B7FDC820FFF790FCC820FFF79C
:1008F0008DFCC820FFF78AFC641E002CEFD100207D
:10090000FFF73DFD10BD10B5044614B1012C0ED10A
:1009100006E00020FFF733FD0120FFF729FD06E088
:100920000220FFF725FD0120FFF729FD00BF00BFD2
:1009300010BD4FF40041F54800F02DFD002404E007
:10094000C820FFF763FC601CC4B2C82CF8DB4FF46E
:100950000041EE4800F01DFD0020FFF709FD0BE00F
:100960000120FFF70CFD0320FFF757FC0020FFF7E5
:1009700006FD0320FFF751FCF2E710B5B820FFF7A2
:1009800064FC0220FFF790FC0320FFF78DFC04209D
:10099000FFF78AFC0520FFF787FC0620FFF784FCA1
:1009A0000720FFF781FC0820FFF77EFC0920FFF7F6
:1009B0007BFC0A20FFF778FC0B20FFF775FC0C206E
:1009C000FFF772FC0D20FFF76FFC0E20FFF76CFCA9
:1009D0000F20FFF769FC1020FFF766FC1120FFF7DE
:1009E00063FC1220FFF760FC1320FFF75DFC15206D
:1009F000FFF75AFC1720FFF757FC1920FFF754FCAC
:100A00001B20FFF751FC1D20FFF74EFC1F20FFF7B6
:100A10004BFC2120FFF748FC2320FFF745FC252055
:100A2000FFF742FC2720FFF73FFC2A20FFF73CFCA2
:100A30002D20FFF739FC3020FFF736FC3320FFF77D
:100A400033FC3620FFF730FC3920FFF72DFC3C202B
:100A5000FFF72AFC3F20FFF727FC4220FFF724FC8A
:100A60004520FFF721FC4820FFF71EFC4C20FFF734
:100A70001BFC5020FFF718FC5420FFF715FC5820F2
:100A8000FFF712FC5C20FFF70FFC6020FFF70CFC67
:100A90006420FFF709FC6820FFF706FC6C20FFF7D5
:100AA00003FC7020FFF700FC7420FFF7FDFB7820AB
:100AB000FFF7FAFB7D20FFF7F7FB8220FFF7F4FB3F
:100AC0008720FFF7F1FB8C20FFF7EEFB9120FFF76B
:100AD000EBFB9620FFF7E8FB9B20FFF7E5FBA02050
:100AE000FFF7E2FBA520FFF7DFFBAA20FFF7DCFB07
:100AF000AF20FFF7D9FBB420FFF7D6FB10BD10B530
:100B0000B920FFF7A2FB10BD38B501214FF4987052
:100B100000F04AFE4820ADF8000010208DF80300D8
:100B200003208DF802006946794800F087FB4821D0
:100B3000774800F02EFC0320ADF8000069467548A8
:100B400000F07CFB0321734800F023FC4FF40040CD
:100B5000ADF8000069466D4800F070FB4FF40041AD
:100B60006A4800F016FC4FF40041684800F013FC9E
:100B7000002404E0FA20FFF749FB601CC4B2FA2C01
:100B8000F8DB4FF40041614800F003FC0020FFF760
:100B9000F6FB7220FFF7D1FB0020FFF7D7FB002008
:100BA000FFF7DDFB0020FFF7E3FB3F20FFF764FCCE
:100BB0008E20FFF758FC0B20FFF7E8FB3120FFF7F2
:100BC000EEFBF020FFF7F4FB642278211046FFF7DC
:100BD0002AFC3A20FFF7FEFB3E20FFF704FC06202C
:100BE000FFF738FC7D2250219120FFF705FC012002
:100BF000FFF7C5FB38BD08B5FFF786FF00210846A3
:100C0000FFF7C5FC81E000210846FFF7C0FCFFF7B5
:100C100044FD3220FFF701FB00210846FFF7B7FC37
:100C20003F2000235F22194600903B48FFF785FDD7
:100C30003220FFF7F2FA00210846FFF7A8FC3F2018
:100C400000235F22194600903448FFF776FD3220DA
:100C5000FFF7E3FA00210846FFF799FC3F20002345
:100C60005F22194600902E48FFF767FD3220FFF7FC
:100C7000D4FA00210846FFF78AFC3F2000235F22B8
:100C8000194600902748FFF758FD3220FFF7C5FAB4
:100C900000210846FFF77BFC0120FFF7BEFAFFF7B3
:100CA000C4FC3220FFF7B9FA1F210020FFF76FFCC8
:100CB0003220FFF7B2FAE0210720FFF768FC32206C
:100CC000FFF7ABFA0021F820FFF761FC3220FFF7B5
:100CD000A4FAFF210846FFF75AFC3220FFF79DFADD
:100CE000FF210720FFF753FC3220FFF796FAE0219F
:100CF000FF20FFF74CFC3220FFF78FFA1F21F8206E
:100D0000FFF745FC3220FFF788FA7CE7002001401E
:100D1000001401400010014000300020009000202D
:100D20000060002000000020704700BFFEE700BF09
:100D3000FEE700BFFEE700BFFEE770477047704761
:100D4000704700000CB50020019000906B480068CF
:100D500040F480306949086000BF6848006800F4CA
:100D6000003000900198401C0190009818B901983B
:100D7000B0F5A06FF1D16148006810F4003F02D0D7
:100D80000120009001E0002000900098012842D14D
:100D90005B48006840F01000594908600846006848
:100DA00020F0030008600846006840F00200086078
:100DB00052484068514948600846406848600846C3
:100DC000406840F4806048600846406820F47C1029
:100DD00048600846406840F4E810486008460068EB
:100DE00040F08070086000BF4448006810F0007F49
:100DF000FAD04248406820F0030040494860084665
:100E0000406840F00200486000BF3C48406800F085
:100E10000C000828F9D10CBD10B5FFF793FF10BDE9
:100E200010B53648006840F00100344908600846B3
:100E300040683449084031494860084600683249F2
:100E400008402E4908600846006820F480200860A9
:100E50000846406820F4FE0048604FF41F00886098
:100E6000FFF7DAFF4FF000602849086010BD10B5A9
:100E7000002100200022214B5B6803F00C0121B10E
:100E8000042906D0082928D107E0214B214C2360F2
:100E900027E01F4B1F4C236023E0184B5B6803F4D3
:100EA0007010164B5B6803F48032022303EB904012
:100EB00022B9194B4343174C23600DE00F4B5B687D
:100EC00013F4003F04D0144B4343124C236003E05F
:100ED0000F4B43430F4C236003E00D4B0D4C23603D
:100EE00000BF00BF054B5B68C3F303130B4CE15C11
:100EF000084B1B68CB40074C236010BD001002401C
:100F0000002002400000FFF8FFFFF6FE08ED00E0C1
:100F100000127A00D4F6002000093D00D8F6002027
:100F2000014600BF704700BF494A128812F0400FC7
:100F3000FAD0C2B2464B1B1D1A80704710B586B05E
:100F40000446012144F2050000F02EFC4FF400702D
:100F5000ADF8140003208DF8160018208DF8170046
:100F600005A93C4800F06AF94FF48060ADF8140020
:100F700004208DF8170005A9364800F05FF92520F8
:100F80008DF8000003208DF801008DF8020001208B
:100F90008DF80300684600F088F801940020ADF851
:100FA0000800ADF80A00ADF80C00ADF810000C20F8
:100FB000ADF80E0001A9264800F0A1FC012240F284
:100FC0002551234800F033FD0121214800F023FD85
:100FD00006B010BD10B540F225511D4800F00CFEC2
:100FE00010B31B4800F088FDC4B21B48008810F401
:100FF000004F2BD11848008810F4804F0CD00A2CD9
:1010000003D000201449088020E01348008840F4F1
:1010100000401149088019E00D2C06D10E480088C7
:1010200040F480400C49088010E00B480088C0F371
:101030000D000A490C5408480088401C06490880E5
:1010400008460088C72801DD0020088010BD000088
:101050000038014000080140E8F6002004F70020B5
:101060000948804709480047FEE7FEE7FEE7FEE73C
:10107000FEE7FEE7FEE7FEE7FEE7FEE70448054978
:10108000054A064B70470000210E00083101000898
:1010900030F8002030FE002030FA002030FA002026
:1010A00031490143314A1160704770B50021002376
:1010B0000F22C4780CB32D4C246804F4E064C4F50A
:1010C000E064210AC1F10403CA40447804FA03F140
:1010D0008478144021430901254C0678A1550478F1
:1010E00004F01F050124AC4005786D114FF0E02697
:1010F00006EB8505C5F8004109E0047804F01F05FA
:101100000124AC401B4D0678761145F8264070BD91
:10111000194A0A400243154B1B1F1A60704739B128
:10112000124A121D12680243104B1B1D1A6006E082
:101130000E4A121D126882430C4B1B1D1A60704729
:10114000042808D14FF0E021096941F004014FF073
:10115000E022116107E04FF0E021096921F004016C
:101160004FF0E022116170470000FA050CED00E03D
:1011700000E400E080E100E080FFFF1F10B50446BE
:10118000CA48844208D10121042000F027FB002135
:10119000042000F023FB46E0C548844208D1012129
:1011A000082000F01BFB0021082000F017FB3AE0AC
:1011B000C048844208D10121102000F00FFB00211B
:1011C000102000F00BFB2EE0BB48844208D1012127
:1011D000202000F003FB0021202000F0FFFA22E095
:1011E000B648844208D10121402000F0F7FA0021DE
:1011F000402000F0F3FA16E0B148844208D1012102
:10120000802000F0EBFA0021802000F0E7FA0AE0ED
:10121000AC48844207D10121801500F0DFFA00219B
:10122000A01500F0DBFA10BD10B50121084600F052
:10123000D5FA0021012000F0D1FA10BD2DE9F041CE
:10124000024600250026002000230024002791F8F4
:1012500003C00CF00F0591F803C01CF0100F03D071
:1012600091F802C04CEA050591F800C0BCF1000FEE
:1012700031D0146800202BE04FF0010C0CFA00F381
:10128000B1F800C00CEA03069E4220D183004FF063
:101290000F0C0CFA03F7BC4305FA03FC4CEA0404F8
:1012A00091F803C0BCF1280F06D14FF0010C0CFAE5
:1012B00000FCC2F814C00AE091F803C0BCF1480F6A
:1012C00005D14FF0010C0CFA00FCC2F810C0401C14
:1012D0000828D1D31460B1F800C0BCF1FF0F34DD91
:1012E000546800202EE000F1080C4FF0010808FAC5
:1012F0000CF3B1F800C00CEA03069E4221D1830032
:101300004FF00F0C0CFA03F7BC4305FA03FC4CEA50
:10131000040491F803C0BCF1280F05D100F1080CBA
:1013200008FA0CF8C2F8148091F803C0BCF1480F19
:1013300007D100F1080C4FF0010808FA0CF8C2F8C8
:101340001080401C0828CED35460BDE8F0814FF6D1
:10135000FF710180022181700421C1707047024633
:10136000002093680B4201D0012000E0002070476C
:101370000146886880B2704702460020D3680B425D
:1013800001D0012000E0002070470146C86880B20B
:10139000704701617047416170470AB1016100E027
:1013A00041617047C16070474FF480320A438261E7
:1013B0008161826182698269704702460020424BE6
:1013C00018684FF68073184040EA021008433E4BFD
:1013D000186070473D49C8617047F0B50A46002360
:1013E00000240021002500F00046B6F1004F02D194
:1013F000354EF16901E0344E7168C0F3034583B2A4
:1014000000F44016B6F5401F08D121F070612E4E51
:10141000766826F070662C4F7E6012E000F480162D
:10142000B6F5801F06D1032606FA05F4A14341F064
:10143000706106E0460D360103FA06F6B14341F04D
:10144000706122B1460D360103FA06F6314300F011
:101450000046B6F1004F02D11B4EF16101E01A4E79
:101460007160F0BD30B500228B071C0F0F2303FA0B
:1014700004F2154B08338C1053F824309343124C6C
:1014800008348D1044F8253023468C1053F824304E
:101490008C07240F00FA04F423430B4C08348D10FE
:1014A00044F8253030BD0A49086070470008014003
:1014B000000C0140001001400014014000180140E0
:1014C000001C0140002001400000014000002042BB
:1014D000DC002042DD48006840F00100DB49086084
:1014E00008464068DA490840D8494860084600681C
:1014F000D8490840D54908600846006820F4802093
:1015000008600846406820F4FE0048604FF41F0061
:1015100088607047CD49096821F48031CB4A116059
:101520001146096821F480211160B0F5803F03D095
:10153000B0F5802F0ED106E0C449096841F480312E
:10154000C24A116007E0C149096841F4A021BF4ABD
:10155000116000E000BF00BF704710B501460022D7
:10156000002300204A11012A02D1B84C236806E06A
:10157000022A02D1B54C236A01E0B44C636A01F03F
:101580001F02012494401C4201D0012000E00020F1
:1015900010BD38B5002000900024002500BF312088
:1015A000FFF7DBFF05460098401C00900098B0F55F
:1015B000A06F01D0002DF2D03120FFF7CEFF08B18F
:1015C000012400E00024204638BD014600209F4A47
:1015D000106820F0F80040EAC100106070479E4992
:1015E0000860704702460020984B586820F47C1031
:1015F00042EA01031843954B5860704796490866C4
:10160000704701460020914A506820F003000843CB
:10161000506070478D48406800F00C0070470146EC
:1016200000208A4A506820F0F0000843506070475C
:1016300001460020854A506820F4E060084350606D
:10164000704701460020814A506820F4605040EA0B
:10165000C1005060704729B17C4A527A02437B4BEB
:101660005A7204E0794A527A8243784B5A72704730
:101670007A490860704701460020744A506820F497
:1016800040400843506070470021754A11706F4A0E
:1016900082F82010012802D0042808D103E001219B
:1016A0006F4A117004E005216D4A117000E000BF1F
:1016B00000BF70476B49086070476449096A01437D
:1016C000624A11627047674944390860704730B513
:1016D00000210022002400235C4D6D6805F00C0100
:1016E00021B1042905D0082923D105E05E4D05600C
:1016F00022E05D4D05601FE0544D6D6805F47012E9
:10170000524D6D6805F48034022505EB92421CB9F8
:10171000564D554305600BE04C4D6D6815F4003F88
:1017200003D0524D5543056002E04F4D55430560CF
:1017300002E04D4D056000BF00BF444D6D6805F0EF
:10174000F00109094A4D6B5C0568DD4045603F4D7D
:101750006D6805F4E061090A454D6B5C4568DD4044
:1017600085603A4D6D6805F46051C90A404D6B5C67
:101770004568DD40C560354D6D6805F44041890B15
:101780003C4D6B5CC568B5FBF3F5056130BD29B117
:101790002E4A526902432D4B5A6104E02B4A52698A
:1017A00082432A4B5A61704729B1284A9269024301
:1017B000264B9A6104E0254A92698243234B9A6141
:1017C000704729B1214AD2690243204BDA6104E013
:1017D0001E4AD26982431D4BDA61704729B11B4A08
:1017E000D2680243194BDA6004E0184AD268824397
:1017F000164BDA60704729B1144A12690243134B41
:101800001A6104E0114A12698243104B1A61704751
:1018100014494039086070470F49C86470470B4944
:10182000C87170470948406A40F0807007494862B3
:10183000704701460020054A92680A4201D0012003
:1018400000E0002070470149887270470010024094
:101850000000FFF8FFFFF6FE00004242D8004242BF
:10186000201002408004424200127A0000093D002C
:10187000F0F6002000F7002010B50446FB48844233
:1018800009D101218803FFF7A9FF00214FF480400F
:10189000FFF7A4FF32E0F648844209D10121480451
:1018A000FFF7A9FF00214FF40030FFF7A4FF25E068
:1018B000F048844209D101218804FFF79CFF0021F0
:1018C0004FF48020FFF797FF18E0EB48844209D1DE
:1018D0000121C804FFF78FFF00214FF40020FFF71C
:1018E0008AFF0BE0E548844208D101210805FFF793
:1018F00082FF00214FF48010FFF77DFF10BD2DE91E
:10190000F04786B005460E460024A24600BFA14619
:101910000027B08900B100BF2F462C8A4CF6FF701B
:101920000440F08804432C82AC894EF6F310044046
:10193000B08831890843718908430443AC81AC8A7B
:101940004FF6FF400440B0890443AC8201A8FFF782
:10195000BEFEC648874202D1DDF810A001E0DDF8E6
:101960000CA0A88910F4004F08D00AEBCA0000EBC5
:101970000A1031684900B0FBF1F807E00AEBCA0031
:1019800000EB0A1031688900B0FBF1F86420B8FB65
:10199000F0F004012009642101FB1089A88910F4EA
:1019A000004F08D0322000EBC900B0FBF1F000F08E
:1019B0000700044308E0322000EB09106421B0FB6B
:1019C000F1F000F00F0004432C8106B0BDE8F08771
:1019D0004FF41651016000218180C18001810C21EA
:1019E000418100218181704710B502460020108A94
:1019F0004FF2FF0318400B884C8823438C88234305
:101A0000CC8823431843108210BD002101804180FF
:101A10008180C180704721B1828942F40052828165
:101A200004E082894DF6FF731A4082817047F0B559
:101A300003460024002600250020A1F510676A3F18
:101A400000D100BF1846C1F3421401F01F06012760
:101A500007FA06F5012C01D10C3004E0022C01D16B
:101A6000103000E014301AB107682F43076002E01D
:101A70000768AF430760F0BD1AB1838A0B438382C6
:101A800002E0838A8B4383827047028A4FF6F073A9
:101A90001A400282028A0A430282704782894FF208
:101AA000FF731A40828182890A438281704721B183
:101AB000828942F00202828104E082894FF6FD733E
:101AC0001A4082817047028A4FF6DF731A40028201
:101AD000028A0A430282704721B1028A42F480429C
:101AE000028204E0028A4BF6FF731A4002827047BA
:101AF000C1F308028280704701468888C0F308005D
:101B00007047818941F0010181817047028BD2B217
:101B10000283028B42EA012202837047028B02F4A5
:101B20007F420283028B0A430283704721B1828A7B
:101B300042F02002828204E0828A4FF6DF731A406C
:101B40008282704721B1828A42F01002828204E0D0
:101B5000828A4FF6EF731A408282704721B1828ADF
:101B600042F00802828204E0828A4FF6F7731A403C
:101B70008282704721B1828942F40042828103E06F
:101B80008289C2F30E028281704721B1828A42F4B7
:101B90000062828204E0828A4FF2FF731A408282DE
:101BA0007047828A4FF6FB731A408282828A0A4308
:101BB0008282704721B1828A42F00202828204E06E
:101BC000828A4FF6FD731A408282704702460020D7
:101BD000B1F5007F00D100BF13880B4201D0012076
:101BE00000E00020704701F40072B2F5007F00D1E0
:101BF00000BFCA430280704770B50246002400232C
:101C000000250020A1F510666A3E00D100BFC1F397
:101C1000421501F01F03012606FA03F3012D02D13C
:101C20009689334006E0022D02D1168A334001E046
:101C3000968A33400C12012606FA04F416883440C2
:101C400013B10CB1012000E0002070BD10B50022DE
:101C50000023A1F510646A3C00D100BF0A120124E0
:101C60009440A3B2DC43048010BD00000038014062
:101C70000044004000480040004C0040005000403C
:101C800070477047704770477047754600F028F8F6
:101C9000AE4605006946534620F00700854618B059
:101CA00020B5FFF7EBF9BDE820404FF000064FF0FC
:101CB00000074FF000084FF0000B21F00701AC4681
:101CC000ACE8C009ACE8C009ACE8C009ACE8C009A0
:101CD0008D4670470446AFF300802046FEF78FFA2A
:101CE00000487047CCF70020081D000800000020C5
:101CF00004F700006C010008D0BC000804F70020C5
:101D00002C070000C80100085AFF01281FB6738580
:101D1000A675446CC475046CC274E364655C256488
:101D200006950DE77B8BF0C576F7DE22100CDEFA08
:101D3000E7568C657B217AE083128368318B209390
:101D4000409B609B809BA0DED8E73BDF57BEABB6D5
:101D500067D6F4EF9BF7BCEFBCF79DF79BD751C755
:101D600009BEE8AE87BECAC70AC6EBFFFE68092CEB
:101D700001681DBE7A84F37CD17D0B6C4853A76447
:101D800044956D6CE5642832A543086C2CE77924F2
:101D90001819AD75F7BECF178DC775466D045CA4D5
:101DA0005CA364C364E36CA3952D741ADF1F280839
:101DB000DFB4D3A430FFBF0A1B9C4ABE1DC082E023
:101DC0008A0212931293182392E092E0AB80D650CD
:101DD000AD70A4C1AE26B6A7AE86AE65B6C6B6C710
:101DE000BEE7BECBD6F7EF7CEF99BE0808340BCF29
:101DF0002ACF2DFFFDC0181BFFDFEFBE8DD37D6AFC
:101E00006D256CC67D097D296D27752753ED4B8A9D
:101E100074AF9E69C0182F55FFFF854A6D266D056A
:101E20005443646474E475048D8BBE78640B5BAAC0
:101E3000644C6C8974E89DCDA58D9D6DEF5CA530DB
:101E40006322728082021E8AC08AA08ABC082B3557
:101E500092E193609BA0A4669C679C209C40ADE4AB
:101E60009E42A6449E44AE86B6A6B6E7B6C9BEABB1
:101E7000BECBBF0ABEEAC6EBFFDFBE3901481A8DF2
:101E8000D275696D066CE8856B7D29752774C95319
:101E90008B3AC34368742DF7E1103B3C7BEFE79C22
:101EA000852AAE51C6D5CED5B652AE32AE329DEFF2
:101EB00095AE958E956EAE31BE92B611B650BE10EF
:101EC0009D6C64074BA6332432C27A8082A08A803C
:101ED0008A608AA093290208273A9B209B20A3802E
:101EE0009BA0A3E094616CC074E28DC4B685B6C6B5
:101EF000AE86BEE9B6C8BF08B6E8AE889DEAE73947
:101F0000C0183BF7FF6D2C64C7752A8D6C7D2A7550
:101F100047644B432532E232C23B074B0ACE79ADD0
:101F200056A6136B6D74CB330432E632E5CF18DF5F
:101F300058DF39DF17DF38CED5D715D7160A1D374A
:101F4000D6F6D6D81811A5D07CEC54074B852B02B9
:101F50006A4182618260C0380A808AA092A092C0E1
:101F600092E0C408223A609BA19BE15C0174C39695
:101F700044B6A5BEE7BEC7B6C5B6E7B6C8BEE8B6A6
:101F8000A9A669C70DDF37C018377D4E6D287D2A99
:101F9000852B854B43633B233B2332E22AC22AC570
:101FA00029E5EF5DFFFF6C4E632B75286CC93B651F
:101FB0002B034B48D717DF19DF39C6B5CF18D738F1
:101FC000CA1902181DD6F7DF18DF18DEF6B6117D24
:101FD0002C646843A462407A2082408A408A6092DE
:101FE000800269C218134093809BA164218542A698
:101FF000047441AE87B6E8AEC02CBF27BEC4080843
:1020000038C9CF2CC6ECCED5C02819752C6D4885A3
:102010006C750A43843B633B424B434B454B653AEB
:10202000C453091E1813956F94F1748A9D94F7FF99
:1020300063ED19E38D4EB67302101F7474CB330237
:1020400032E13B224B645BE66C488D0CB62FC692A6
:10205000C692ADEE6CC862A17A1B8220C07B409212
:10206000C219C008263421934193817CC28DC26C71
:10207000404B815C249DAED6F5E778EFB9D730BEF2
:10208000C7BEE8CF2DD72CCEEEEFBBC01FBED96D9B
:10209000496CE7C0181C0C43634BA43B222B012B5B
:1020A0000232A33AE58C8FFFDEFFFFA62C8D0F5284
:1020B000EA271013FE84B12B064BC87CED7D2E322F
:1020C000C22AC12AE13310142B202B2033413B01BB
:1020D0003B623B403B4183E669C0721E79C081E0B0
:1020E0008AC03A92C01B9AA0021AC0C219C0168BAD
:1020F000828D828D081D348D6153C04BC26C86D792
:1021000015E759EF9BEFBBEFBCF7BCF7BADF33CF56
:102110000DCEEEC0180DAE7765086CA75C674BE37B
:1021200043828A280C6233623B2353654325F7DDE3
:102130001E1817858931E542C8844F7BCE53AC4BBE
:10214000CA3B273B2743453303BE1019023B223BC2
:102150000132E033213B213B0153C495EC7B2469E0
:10216000E179E07A128219C01A20BE3A60BE2902D3
:1021700008322AE0930193218345EF9E94E3B663EE
:102180009E054B2153825BE36CA39587954DA5D0AB
:10219000CEF7F7DCF7DEF7DEEF99CEEEEF9AFFFF32
:1021A000E79BEF9CC01BBF1AC01808E754044BC341
:1021B00043C304280C833B6343033AC24325E73AF5
:1021C0001E10307D4639E84B4874A7638C4BAB53E7
:1021D000EB5BEA642B4B673B453B644363438353B0
:1021E000A4434453C574AA8D2C74694BE56AA27A42
:1021F000017A2A7ABE3C408A40C01B8092BE184DAC
:10220000928092C092E192E1520152619C0A420393
:102210006B816B834B425B045B8274E385625BC1C1
:102220005BA17CA3CF07C708C6EBBEADBECCC6F092
:10223000CF15BECFC6EFCF31CEF473B0FFDED69A46
:102240007C318472843284327C117C520248641165
:102250007C3273F17C117BF173F06BAF6B6F6B6E43
:102260005B6C7D8A5C65540453C44BC453E54B835B
:102270003B024B0243434344634A42A922677D86A3
:102280005B6885AA85A65C071A456C6E74AE74B04F
:102290004BEA6C6B74CBADF0C6D4CEF4C693D6F5D6
:1022A000D6B6D6D6A58F640772617A217A218220AC
:1022B0008A21BE39023A80041834A192C18B885A0F
:1022C000A25AE26B436B4173624B2232408462BE7E
:1022D000E49DC57D2285829DC763A47C44BEAAC7B8
:1022E00008C72ABEAAB68AAE8CBEACBECA02181CEB
:1022F000AF7C308BEFFF9E738E84517C1173F08422
:10230000526BF07C517C317C528CB3061A31C01870
:102310000F8F740F638D5B6D6CCA5C2554055C0276
:1023200010184B834BA44B625BE63B2353856BCA6F
:102330004BAB1A4264E452E84C182D33623B233B0A
:10234000496CB07D107D3285719DD0CED5C6B6D793
:1023500018E77AEF9BE75AEF7AE738D6F66BC46A4C
:10236000627A6182618240BE19042906190239C667
:102370000844118A818AC4F7BF736862C262E05A56
:10238000E05B2142A152C19528AE46B6A4B6C5B6BF
:1023900065C6887BE67C237BE584C6D713B60FB67B
:1023A0004DAE69C6B0BEE9B6A9BE8CC692EF97D64F
:1023B00076F7BFFFDEFF011847EF7EE73EEFBFF77E
:1023C000FFFFDF6CAA5C265C26644653E453E44BB3
:1023D000C45384432243635BC6BE544B2D22A15495
:1023E0004442A93B8133423B445C4C85318D528D44
:1023F00053A613ADF3BE96CEF7DF59DF39EF9B023C
:10240000180E79E739E758A5AB94477A827A62C209
:102410005C208A20BE3A20CAA840418A627C07DF3D
:102420007AFFDF7BA36AE073416B2062C05B0152DD
:10243000E27C4574028C449CC5B607BEE6BEE7BE8E
:10244000A86BE373E4A54FE7BA9E28D738EFBBCE5D
:10245000EFBE8ABE6AC6EACED1B43809F7DEEF9E77
:10246000F7BEE79D021C9EEFBE103854DED75764BE
:102470006A5C4664455C055C245C0453A45B844B45
:10248000634B636427CE946C4E2AC144223A273BA7
:1024900062336143667D108D7395949DD4B656D793
:1024A00019BE76CF18D6F8DF79B6527CC78D2AD6FA
:1024B000F3B60E6BE4C66F8BE47A617A417A20C280
:1024C0002902181C218A0181E082028C0395C57DB6
:1024D000048D67B6C9A4A583C283217BA17BA1C853
:1024E000109D2263025B0262E262C25AC25AE35B3F
:1024F0002473A4E71573A473C5742584CAAE2EEFA4
:10250000BBD6F2BEA7BEA9C68DFFBFFFFDD758C67A
:10251000F5D757E7BBEF9DF7BEDF5DCF16B6AC9E94
:102520002A85876CE6542643A664077CEC644864DD
:102530004664255C2553A453C56C0653A34B6264C3
:10254000068CCBDF9C2262440263EA3B633B435C24
:102550004A7D1095B3A5D49593AE15BE76CEF8D727
:10256000189D8E74C675066CA57D079528A5898D66
:1025700008C66FC64E94457261720181E17A1026D9
:1025800079E079E179A071A1716179E561C27A247C
:102590007A24826582E49367BCE9B4A7B527AD05C8
:1025A0009C62A462941F73816B215AE1C61847E3B1
:1025B000630362E35AE5CDEEB4E77B6473C5952609
:1025C000B688E79AF7FDD714BE8AB688B669CEEE0C
:1025D000C692D6F4FFFDF7BEB656648A64875C8661
:1025E0004BE64BC543A543656448BE73C677646933
:1025F00064466C465CC210565C467C674B834B83DA
:102600006C2774894B664B6643C133A133814BC73A
:1026100074AE8D72ADF4AE14B655B5F5C6B8CF181C
:102620008568750575056CE564A46CA47CE5954723
:1026300084E6C64DBDEC7C0441E13A027BE27B219D
:10264000722069E1610158E1696171C07A2D8241AE
:1026500082600218677A6192C1ABA4DD84DD26DD59
:1026600043BD666341FF92F70EC4E4ABE19BA0B3A8
:10267000E1DD22F581EDE7EE2DFF34C589ADE4AE55
:1026800066B628AE6AD739E79CEF9EDF58BE91BE8A
:10269000D1BEEFA68B5C8754464BE643A6438543E9
:1026A000653B6543865C087D0DADB6FFDF6CAD6CA8
:1026B000686C6664476C2753E46C05C01828A363F4
:1026C000E67C8A954D53E643C243A343A3646B8DD6
:1026D00030A634B635A5F4BE76CED8A5D054035C6A
:1026E0000485468546C2182EC464836CA484E584A0
:1026F000E5A56A4AA14A814A6162C16C2273E1730D
:10270000826122612171817A0182208A808AA08A75
:10271000C08AA08280C4183E8092C1BC44DD64DDC2
:1027200041DD67F795F68DDCC1D401CBA0CB80CB22
:1027300061CB81D380CBC0D421D4A1DD88F6CEF685
:1027400063FF4BE712AE09CED2EF9FEF9EE79CCE20
:10275000F87CEA8586BC180BC53B843B643B44434C
:10276000654BBE3817956FBE36FFDFF7BF7CB06C88
:10277000696C475C055BC453E563C4C01808C68434
:10278000CAA58FADF4C0103D8253C684CD9D91B6CD
:1027900075BE76ADD4CEF7D73643A25C238DA68D19
:1027A000C685867D4564C464A3648274C353413A7C
:1027B00041426152416AE384059CC6A4E9696369A8
:1027C0008071A07A280A8A8092C092E09AE09202F0
:1027D00019C42902184C9B01DD86D5CAF70FFE09E2
:1027E000D462C340B321B2C0AAA0AAA1B2A1B2E0F0
:1027F000B2E0BB40C3A1CC20DCC1F64CEE22FEE827
:10280000FFB86BA5952BDF5ABE9695D174CB63E7C5
:102810007CAB6C2A4345438543854B8553E76C4B22
:10282000FF011062DF1B53CB9D116C886C26644541
:102830005C0553C45BA343834B625BA56C28952D59
:10284000A58F438243817D0DADF3A5D2B675C6B683
:10285000AE30A60CA5CC5C247CE5B689B688A6056E
:102860007D64754464E36CA364043A613A414A614F
:10287000630263A1A686AEC45A2169A171E18201F7
:102880008A609AC19B1B9B200211129369C218197E
:1028900092C0A363F6CEF5C6DC62C380B2E0A2A00C
:1028A000A280A2809A609A800A13E0AB282DB340E0
:1028B000BBA0C401D4C1FE8DF581F6CBC6105B84EC
:1028C0005B868D0EA5F27CAC53666C297CAC748B58
:1028D0006C69538653C653E8A571C0105ACE798DE2
:1028E0002FC63464696C265C045BE453C34B4143DC
:1028F00061436253636C0784CB9D2D43826425A59D
:10290000D1C674BE75BE96A5EF4B438549AE4DCE7C
:10291000D3E778D6D4D73484CA9D4C954C9D6C7C33
:102920008A426142614A816B846C035C02B610B4D6
:10293000EC69C171E07A180B824092A09B01A32040
:10294000A34102180C40A3209AE09AC092A0928062
:10295000C02F21C444DC40CBBE29BA1B6092041BAB
:102960009A80C21AA1C21A01C21380C42825DD436D
:10297000FE8EED80FF5294E54AC353244B435BA681
:1029800084CC53658D2E850E958E9D8F9DAF746A78
:10299000E75BC018128D5352C68C0C6C476C455BBC
:1029A000E45BE44B8343C038503B4143225BC56B3F
:1029B000E794CB53A39D4EC634CED6D6F8B6545C1E
:1029C000044B6453A5DF7AF7DBEF9BCEF264263B22
:1029D00043438553A6536742C43A2152C0ADA4A5D0
:1029E00046CE2DEF34F777622169E1720182418A88
:1029F0006192A0A301A341AB0259C05902380BA3B5
:102A000001CBA1BAC0AA609A400249C01EA09AA0F8
:102A1000A2C0C21A20C2183EA0DC41E628E546F654
:102A20006A9D2895434AC242C54B0453855B8595F0
:102A30004F9D71ADF1A5D1C673DF57D717AE345B8B
:102A40006C4AA86B29FFBE742B64445BE453834B30
:102A5000824321436104183E0153836C077C4995EE
:102A60006DC67274A874CBDF17A5D274C84BA35B74
:102A7000E5C6D3E779C75085C43B432AC232C32A8F
:102A8000633A833A424AC494EBADB1B5F2BE33BE69
:102A900033CEB46201BE1E218A4192609013E0AB36
:102AA0002BAB010212A31EA2E0A2C09A021A92A8A6
:102AB000280B9AC0BB23AA20A2209A20BE192A1A4A
:102AC0008016191C2EA2C1A2C1AAC21361C428304B
:102AD000E4A4EEAEE5CAAD6C7CC285033AA25B69A4
:102AE0004B285B47952E9D91AE13CEB6CEB5E779B8
:102AF000E778E75939E76B6AF779F7BE7C875CC0FE
:102B00001808C34BC343414340C2280A41430163F1
:102B1000A67C2853C51418314B8353C674CB6C67FD
:102B20005C035C06A56B8D696D634C4143232AA24F
:102B300022622A42320232223A633A8442844AA50D
:102B400073C773A6738661E1C01E208A408A40C0A5
:102B50001CC0AAE09019C02BAAC0C229A4100C9ACC
:102B6000A092A09280AAC2A1E09A19BE19C01B9A95
:102B7000800229D619BE190219F41831B321BB41BC
:102B8000CC01D547D4E7A56C74427C849D6CC638D3
:102B9000ADB5EF9DA5B29570B654D6D6DF18EF9BB4
:102BA000F79B52A8842BBE74DED5DF399C180843EE
:102BB00053E253C24B83BA1C604381C2483E213B5F
:102BC000014B025C04540453E44BA353C353E4533A
:102BD000C47CE46C6595085C634C623B825BC62AEE
:102BE000C22A832A0129C131E229E229A13202390C
:102BF000E24AA342424A4259C171E1C01E9260A218
:102C0000A0AAC219BE1FE1AAE1A2E0A2BC29C21B70
:102C100092A0B43C6199C0C02A60C01BA2A0023A35
:102C2000A1BE19C012A319F2111810BB81BC44C473
:102C3000A6840863A36BE384A9FF011829B6549501
:102C40008B9D71BE55CE96DF17E7594A48CE75E782
:102C500039DF18944CD718432064635C0353C34B8B
:102C60006343414BA1022AA2C2180922215C2564B8
:102C7000465C45BC1BE454CA102C5C447C8664440E
:102C80005C64434343853B412A622A41326229E323
:102C900031C229C229A131C231C131C031C139C0CB
:102CA00061C171C17A1E92609240929E1BA2C1C204
:102CB0002CE1AAC1021BA2C0C229021CA09280C0A2
:102CC0003CE09A20C049BE191C5906193019361823
:102CD00048E0AB21AB83A3A64A625B236BC57C486B
:102CE0005369F7FFA649A6875BE58CEFC676C695C4
:102CF0003A065AC7EF9AEFBCE75AE719EF584B412B
:102D000074C55C2353A353634B615C024BC253A154
:102D10005BC64B253AA45C05C01035255C465C2497
:102D20005C45540464656C6554443322B6354B6489
:102D30003AC13AA332C22241198229A36BC841C2C7
:102D400039C231E131E132013A2151E171A17A1602
:102D50008A2092419A499E49BEE9C04B9A41BEC918
:102D6000C019BC590218459AE08AC28B654AC15BFA
:102D70004363E46C2432C33AE43AA59E659E27641B
:102D800062A570C6364A23EF18D718E739E779EFFE
:102D90007BEF9C4B635BA563E45BC553834322538A
:102DA000C25403A5AF53A8434732C5BA181A675C8B
:102DB000475C265C4664665C456C85644464663B9F
:102DC0000474E83AE23B21BE182C621A02218119F0
:102DD00022954B4141416151615981598161616144
:102DE000A269C179E08A2192409A209A40A260AA01
:102DF00080AAA0AAC0C02AE1C22B9AA0C019C21CF6
:102E0000829A622229C069BE29B649061852E09A00
:102E1000E192C08AA27AA1426053405B8064036C55
:102E20000442C232632A6132A13B024383434229F6
:102E30006341A3414362A8528574A2BE72F77D4BE1
:102E4000054B216BE66C285BC64B254B634BA2E719
:102E500079955043462A6364685C686468646702D5
:102E600018208664656CA56C4553C532E23B614B06
:102E70008243432261226219C211031963DF1441A4
:102E800042C0181241516259405960616061E27953
:102E9000E089E092209E19022DA280A2A0BA3AAA4F
:102EA000A619BE19C028099281724392419261C04D
:102EB00039BE1AC10229BA29BC1922186792C082E8
:102EC0008082A03A2042815B6063E06C216C62E703
:102ED00071CF1032822A413AC22A622A813321629A
:102EE000E59C06C4E99C0941628C4A4BA26C694B83
:102EF0000263A47C896C0942666C4AA58ED718D6F9
:102F0000D8C696328464A964896CA964C864A8642C
:102F1000A764456CC684E9534553E64BC2438522FA
:102F20006222A2C0101DC119813243BE0E41A141CF
:102F3000612962296139E0412050E1514071E1810C
:102F4000E08A5B9240C029A429024AC09E18099ACF
:102F5000A1798151617222C03D409A809AD839028C
:102F60002CE0A2E1BC102292E08A807A8141C03A32
:102F70000142A0534063C0748174617CA721E319AE
:102F8000E121E12A4021E03218538362A381B42277
:102F9000C4C4E62BEED0C52B72629469BDF552C550
:102FA0006325A573FFDFF7DDCEF6AE31B6B1AE52C5
:102FB0008D4D6C8A752B6D0A750B6D28750974C85B
:102FC000852A5385536643A253E6228232A421E226
:102FD00029C2298331A274856C045283C017C12190
:102FE000C0196019180D20E138E1514179E189E1FA
:102FF0008A20A05C60A281C019A239BE180EC08AC6
:103000006271A0620239E248E08A20C439C24B9A58
:10301000A01C181D92A092A08AA07282294029A00B
:103020003A204AC05B605BA0744163E06C0421817C
:103030000248258042C23AA07B019340A381AC02A2
:10304000C4C4DDA8F6B0EEF1EF10EEEFEE8FBD6E6A
:1030500062A95AEB9CD4FF011821FEC6D49DCDA5D0
:1030600094CED9DF3BFFFFBE548D6C7CE95C063B00
:10307000C55C6743C52283226321BC182729A2317E
:10308000A34A4342A263A3638441C2320231E218DD
:10309000E110E108C210C110C231417A218A419287
:1030A000419A40BE3E80A2A1A2A1A61816C0A2E1EC
:1030B00092828223824279C092A2926282027960D5
:1030C00081E0282A600210268A60824082426221C2
:1030D00029202141218031C03A40532053605BC0F8
:1030E0007460744073E621411941194032382372EB
:1030F000A18AE09341A381B422CCC4D566E66CF6E4
:10310000CFF6F1F711EEAEE60DD60F2123528AC6A7
:1031100059C05EFDEF9EEFBDCC1816FFCEF7854C73
:1031200074E9542643A5438433032AE421E321A30D
:10313000BE1815C34A666346642363A35303320271
:1031400029C2194110C208BC181318C1292229012B
:1031500020E082018A628A819AA19AC1021DE09AC6
:10316000E19ABC2B81C00218139AC2AB039AC29A8F
:10317000A38A02794068E060E058C10217E158E193
:1031800050E059181B394121202140298031E0426B
:10319000A05B8163E063E06C2084C221601940C0C1
:1031A000170162217AC08B68299B41ABA2B402BC93
:1031B00042CD04D545E609E62AEE4AF6ADE64BD502
:1031C00088BD6D390541853A08D6FBF7DFF7DF7416
:1031D0002EC0180BE79B7D4C6CE954275C67C01E22
:1031E00044224321A3C01826A32163294229416C0C
:1031F0006442C13203196119C229E310E310E129C5
:1032000061298118E120E1212171E1820102181474
:103210002269C182636A43494228A251408A208AB6
:1032200001A2E302100DC39A83926281E179816960
:1032300021611668E058E1691669416120611461F5
:10324000611919C010098139E142A15BA064180914
:103250006C206C0521421920C0280E0131407A8073
:103260008AE09320A342A382C27821C422CC82D5D3
:1032700024D545DD65E5E8E62AD546C4C88C0A7C38
:1032800046212319263ACB4AEA6C0EC028105B7DF2
:103290002D5C6864694BA53B6432E41A04C01817BE
:1032A000218219632102212221E22982218221C364
:1032B0001A02324410C2D61E0118E118E16C104106
:1032C0002069A079E179E1718179C079E072626A5F
:1032D0004720A120C220A28AC49AE3A2C29AA39A3C
:1032E00063922181A079617141692169016940710D
:1032F00060716069606940698051A261A14180424A
:10330000101242605B405220410138E118C018E1C0
:1033100011011110166A21828092E19B01A341A341
:1033200041AB61ABA1BBC1BBE0BC681BCC61D4E3CA
:10333000D504D505CCC3BC43B4AA4B05DF17DEBC0E
:1033400032283267532BC0182BFFFF7D0E64CB85CC
:103350001253E83B65226429E421C41983198311BF
:103360004218E3290421233A42320322222A8332DB
:10337000432122BA18220221023101514269A2716D
:10338000A171E269A1722169E27A815BC572819BB8
:10339000027243410192A20228166192428A218957
:1033A000E081C181807980796069207960718002D3
:1033B0001809798071A071E14961CE190E10086970
:1033C0004169415920491008492031A02180291024
:1033D0000C7A608A8092C09AE09AE0A31FA320AB87
:1033E00041B36002881C80BBA0C3E1C401C421BCFE
:1033F00001ABE29B849D0A9D0DF7BE328B2A66537A
:103400004AC010387CEE5C2B4C0743A633442A2577
:103410003265222521E421C3194320E221223124EF
:1034200063882A642AA32A6319221901192118E240
:10343000108130E1492151417A2182281E8A01827E
:10344000408A6084066C666C2783C793018AA292C7
:10345000629242920189E189C081022808A081809C
:1034600081A079A00C2B79C0081479E07A3E30C095
:10347000698069D01A69DC12591251280859E21979
:1034800080494082C0180D809AA09AC09AC0A2E0DC
:10349000A2E0AA041DAB20AB40C6881640AB60ABCF
:1034A00060A3609B83A4ADFFFFA5B832A732C554CB
:1034B00003C0380F95B25C4A4C274BC743654BA5F8
:1034C0004BA8C01836A32982294110C220E41963F1
:1034D0002A832AC332C410E120C120E128C138E286
:1034E00049015941514059608A828A618AA17BA36E
:1034F0004B8364255C266C677BC6105C218A01BC0B
:103500001AC00829BA29043AE00219081282280BC5
:103510007A2038E030E071607960C21A71C22809FF
:103520006120594031A06981BE290219C24CA0A274
:10353000C00229C4490212A3129B880F93219C49FF
:103540008D32634BFFFF9DD17504C0181F7CCF5C8B
:103550002C542954484BC643463AC62A2319C32142
:10356000444A45192310E210C232A6BE101FE333AD
:103570000318E220C1310240E1492151216121615A
:103580004171A171E393C774455C023B380F5BE462
:103590003AE253C36BE48A2281E181C1C02DA0814C
:1035A000A089C215C089E08A290212821B81C00845
:1035B0001F20824040E028461D616079800218107B
:1035C0004071406920696072A469A08A819260C0DC
:1035D0004B609AC249C429BC19082A9A0213E08B8D
:1035E000880D9C2874A653A56C2BFFFFA62EC01037
:1035F0002C852F6CAC648954085BE97CCF2A65224A
:1036000004196352C619423A461143112243083B3A
:103610002532E442E6414251A24962491F512059F4
:10362000416161BE1814C181E273CA6C6353E23B0D
:103630004064445BC432C16343C039BA19B649021D
:103640001BE089B43B9220041C2089E006380C4022
:103650008AA0390128A131416961C02A60C2180AD3
:103660007180724371C18A8092C24A9A0259C0190C
:10367000081904190217E09AC092E093780DACCBB8
:1036800064244BA35405A5B1FFDFBF484AFE9570E3
:10369000644C6429748E85115C0D2A0521644AC628
:1036A00019431964114409431963436932C532E46B
:1036B000524361C26A026A0169E169C1616169C11B
:1036C00071C079E18A6182826C645C023B216C4545
:1036D00063E63AE27366C05B89C0C013E0921902E8
:1036E00028082092209A409240C41906180F809210
:1036F000C028A0188020A120E1618181C21B8140E7
:10370000C61DE27A8371507B92A1C01C809A80C250
:103710001AA0081BA0A2BC19C019BE780D93209452
:10372000CB5BC24BA353E46C48BE181EFFD71C7C76
:10373000EE5C2A642A95945BEC32A7320642862915
:10374000E521E3116411631163C0380E4932C53AB3
:10375000E55A026A027A227201021A22BE13E07A44
:10376000381582818AA17C656C4443618DA574887B
:10377000536363458242BA1AE002190829BE19BA96
:1037800019BE29C039C6181E6092A08B0138C239F3
:103790006128A128C13163498179A189607960825A
:1037A0002272825180F01AA222192649C039BC1A0D
:1037B000C00259C0129B180FA4065C0453E3436275
:1037C0004BA45C279DD2BB1835FEFFDF9DB585510C
:1037D00074CC644B5BE97D524B8AEFBC73CD42687D
:1037E0002A4519A611A5198419A3198343283284DF
:1037F0004B266A217A6282617A4182417A02180BF1
:103800008AA2822082208A808AC1C0100F654BA2C2
:10381000A6677CCA850952E38AA38A29BE3B91E048
:10382000BC39BA190229901A400E1A609E1824C099
:1038300092C18AC36A23496130C128E128E13182FB
:10384000414169C082217A6121208A4082608A4098
:103850008A20C229C479BE19C01902184B92E0A36C
:10386000427C475C02540353A353A45C0674CBFF11
:10387000FFCEFC95B5648D74CB6C6A6C8A53E75BA4
:10388000EBFFBF8CD3F7FFD6B91A261A2619E5220B
:103890000519A311832AC532C35B06722182828275
:1038A000A28A818A618240C41A61861A60C0181295
:1038B000C273E364455C04644384EB852A63A49B80
:1038C000C7A219BA1D92209220B04C20A2600249D2
:1038D000BE1F9A80928092C098181D20AA809240A4
:1038E00069E2412138E130C129023101412149C158
:1038F000218141E09A818AC619C229322B60A2C077
:1039000019BA190413C0932828A301942564646488
:103910000354035BE453C46426850C8D338D8F7D83
:103920002D7CEC84ED6C8A64295C094BE86C0DFFFE
:10393000011816DF22281A272246222519A322045D
:1039400022A32AE34B247A21BE1826E292C292A235
:103950008AA182818262826092808AC192C27BE463
:103960006C6585095C024B849D4C956A8C089AE3D2
:10397000A839021BA240BA2D40AA80A2021B20A295
:1039800090180B9A6092A0AB42AAE1AA800439D4A5
:10399000101C7A025161390230E228E1290131011B
:1039A00029A15260928181A08A2181E08A1B9240E4
:1039B000EA1CA09AC00213E193382993217C256464
:1039C000625C225C23540353C35C0464456C678DC2
:1039D000908D8E7D2C8D6D852C74AA5C284BE76CA8
:1039E0000963CCC0181CFE3A493B0A32E919E422AB
:1039F0002432C62A8232E23B0172A18AA19AE29263
:103A0000E2B43AC1C22B818A0C1818C273E47CC894
:103A10008D4C53E43B21850BADEE7C66A4489AC2E5
:103A2000A2A0B21A60A63C80AAA0C01C40A2808CB2
:103A30001902280D7B039323B361A2E09AA0AAE1A7
:103A40002619D41832408241496130C028C128E18A
:103A500028E2292149E18AA18A01796081608201F5
:103A60008261928292C393029321A48A94EE5C03B2
:103A700053E24BC25C0308180AA35404646564460D
:103A8000958E0228128D9D8C958D7CEB642853C7F2
:103A90006BE94C08EFDFC1182384B2436C2AC81AC3
:103AA000052A6632C52A62326232C153218AA19246
:103AB000C29AE29B0192E192C08AA0663820E28A13
:103AC000E18AE264437CC87CC943628D6A6C499D8B
:103AD0008EC6909D0ABC8BAB43AAE0AAC0022DA063
:103AE000AAA0A2C41906169AC07B03322F29A06A85
:103AF000A2A3202012AB1BA2C016180B809AA072A2
:103B0000C131A0396230C0284539212902316141D3
:103B1000E06B0428617A4282A293069BEAA4AF4A32
:103B200067DEDAAE3653A24BC243A253E353E363DC
:103B3000E56C476C876C879DCF95AE958DA5ED9D07
:103B4000AD852B642874484B264BC86C6FC0181E7B
:103B5000C6593B2A22462AA62A862A6322422A627C
:103B60002A61526192A092E193019B019AC01E9238
:103B7000C192C182C010207BA45BE474875BC5BE88
:103B8000917CEC64665BE55B84B66D5B44A449B3F1
:103B9000E7B363B341AB2DA301AAE1C81008A2C0EB
:103BA000A32173023A180B31E031E02A013A208355
:103BB000224815C0A3019B281F8AE0524032603A78
:103BC000603A4039E1314128E128E12901392231C7
:103BD0002229224221EF758C1046FFFF8C504207AC
:103BE0009D315BC4436243A24BA35C0584C89D8D99
:103BF0007CEA74C8B611A5EEA60EB60EA5CD8D6CE6
:103C000063E7536643063A86542AFFDFEFFFAE5759
:103C100032E92AA732C73AE7226132415AA27A280A
:103C20000B8A6092A19AC19AE19AE002104292E155
:103C300092E18302832253E353C26C684B627CE9B6
:103C400064665C245C0453E36CA453C44B2253238A
:103C50009448B428B383BB61B320AB40AB839425B5
:103C600052A142C13240322032404A8142C13B1807
:103C70001F3B212180218032013A413A6142814B30
:103C80000242C03A804263108120E13122310204B5
:103C900048084329425266F77BC2281E9CF34227FC
:103CA00094EF63E64BA45BC694C99D2AB5F08CEBF8
:103CB0007D0AB60FAE0FAE0EAEC02C4B7C8AC0187C
:103CC0000E428453E84B6D4BE8540832E73B04182E
:103CD0000A3AE62A8072217A8182C019BE2EC0A2D9
:103CE000E09AC0C0129B281F93218B0274054BE2FF
:103CF00053C24B824B618D6853E6542454245C05B7
:103D000053E45BE44B2390181542E142A163037333
:103D1000846B2373C563A35B224AE13A60022827C0
:103D2000806C25952B4AC543404AC44AC23A414259
:103D3000A1326042E042E14AA129422101298139B0
:103D4000A14A82418241C448080339844247BDF9EF
:103D5000C218199D13632BCE77AE126C4994CAA575
:103D60004CC613B63274A9BE50B62F02182A2EAD17
:103D7000EE84EB63A74B253AE44285326433244357
:103D8000A5436432E33AE63AA732836A217A408255
:103D900060822092809AA0C01EE1A2E19AE1C2282E
:103DA00016E193228363644453C353C34BA35381EB
:103DB000A6267CE75C04BE19021808A44B644B439A
:103DC0005343C02812C14B024B0153027C2663822D
:103DD0006BA44AC13A80C2101EA5CD53C652E564F9
:103DE0002574675365430242C242C142E12960180B
:103DF000C020A25B6143181743014B815BC1638400
:103E000039C231223943398539A75AECEF5DC148AF
:103E100016FE8C915AA7F79CFFFFDF19CE96DEF9AC
:103E2000E77C850FADEE021F8D2B7CCA5366C02840
:103E30001CA43A833283330343433B44330322605D
:103E4000630472817A4182618A818A40C01AA2C069
:103E50001BA301C01850E19B0193427BE4642353F0
:103E6000C24BC34B82AE4B9DE985498DA995E36C4E
:103E70002353C453A453A55BA64B2243024AC14A11
:103E8000E153225B21638363A353214AE13A8042D9
:103E9000809D4B74A874AA7D2A6CA5A54FF7DD53AD
:103EA000474AE44AE2E6182C424B214B2153825305
:103EB000814B614B4053C15C026C82DDC84A0131C9
:103EC0006339A431C842285B0DE75D7BF0632C4A5F
:103ED00069D6B9CC39012DD6B8ADCEBE4829A5AD2D
:103EE000852B74894B4643043A843A842A222AA3B8
:103EF0003B233B232AE2226252E27AE182A18260E2
:103F00008A8092609AA0C03AA2BE687F9B029363A7
:103F10006C2453E34BC253C3DF92DEEF85688D4BB5
:103F2000EFB5D74BCEE9854574C463C353A54B2386
:103F30004B224B0242E14B025B425321534253411D
:103F40004B013A8063E48D6F6425852D6CE8852BE9
:103F5000EFBEDF9A532C63A853644B634B4253620A
:103F600053824B41538153A153C25BA25C216CC26B
:103F7000D522DDA4DDCA5A47420739A639C64229EF
:103F80006B8EF7BE3A0673ACE75CC21FA5CDADEDF4
:103F9000AE0EC028104B6C484B4642E43AA442A3F4
:103FA0003A623AE2C0181332E22A812A0173848A03
:103FB000E182C092C092809AC0BE17C0A2C1A2C0C6
:103FC0009B19C018244383E56C856C44B6CDB6AC10
:103FD000B6AC85678589F7DEFFFFDF6FDF2CADECC0
:103FE000A58A8C8363E65BC2C218104243013AC0C3
:103FF00042E04AE05B425B434B20A81824A55C05E5
:104000007CC7746D854C856A8E088D6C6CA7FFFE2D
:10401000CEF85BC75BC563A3536353A24B8153C107
:10402000024822A14BA283E3C3E2CC63D529FF9AC5
:10403000F7BE526941C731A539C64A48841039C50F
:1040400073ACEF7CC01B9D8CBE282CCD9D8D852B29
:1040500064284B2642E53AA43A833A823B03434321
:104060003B023B0232C12A2142A27B65934193016C
:1040700092C0A301A2E1C2281B9AE09AE1A3029395
:10408000E56C648D69B68CAE8BAEAB96287548EF47
:10409000BCFFFE521813DF57C652BE7285305BC597
:1040A000B66B8CED4B233AC0021821C142E25B4251
:1040B00053422A21332133023302438164669DB384
:1040C0008DC68DE921458568FFFFF737381BF79DC1
:1040D000740863C45BA353A153C25BC15C0253A2C7
:1040E0008406B320BBA2C529A91814DFE73C4A49BE
:1040F0003186294439E752A98C70842EEFBD3418DB
:1041000012FF9D6CA5CDADCD9DAC8D4A5BC74B25F7
:1041100042E4C01EA43AA33B23021C433B22C21824
:1041200010814B0232018363932192E0A301A3210A
:10413000C21AE1081039229BC56C656CA5BE71AE30
:104140006BA66AA66A7D46E79AFFFFD73BA60EAE2E
:10415000AF95A995096CAB4B8732A52A4A11A211DC
:10416000E019C03AC2432263C64AE4220212383739
:1041700032A222C032E222C243617CCB8D888DA65E
:104180003A617E048DA785A9C696FFFFD6548305A4
:104190007A8382A27B4384037CA45BA3ADAFA32379
:1041A000B3C5FF79FFFEC219C41815A5144A2931F9
:1041B00065294431A5630AAD33BED88D6FA5AD0224
:1041C000380ACD9DAD8D4B53664305C01019C342CF
:1041D000C34344436343634B834342430242E2325B
:1041E000A22A20732393183B92A0A3429B219B21D8
:1041F000A3638C246C446CC5B633B68FA62A9E2A62
:104200008DC8AE2FFFFFE77E85E87D29A6279D4755
:1042100085435BC72AC2098111A119C12A4219C06D
:1042200019E10215C119E11A121A281B19E02AE036
:1042300022C02B20F7DABE95A5F332603A4285C43E
:104240008DA48DE58DE9A15815EF598B4782A48285
:10425000828A80928192A093239C05FF98BC181AB1
:10426000FED73AE77BE77CEFBD4A6831442923213A
:1042700003296594F29DAD9D8CBE180ACC9D8D845A
:10428000CA536642E4021AC4021CE34323BE184226
:10429000C34BA34361432243423AC13AA132613A3C
:1042A00040630373446B454A62322253C56CC57C3C
:1042B000EAFFDFB68F9E2996079607F7DEEFBD8DE2
:1042C0006A7D0B64857402AE43B6642A831A221A8F
:1042D00022B61808E0222119E1220108100D01225E
:1042E000021A211A0122202AA02B28197CE6858C8B
:1042F000FFDE84CB5B2285627DC385A37D858587B8
:10430000FFFEFFFDA9180DF79B9C6B83648323AC14
:10431000AAF7981469017ADD0A281BFEEF9C52481F
:104320002944210239C5632B9D8B9DACA5AC956BAF
:1043300063E74B453ABC1820E543253B034B844BD0
:10434000A353C453E453C353A35BA33B213AE13AC1
:10435000A13A802A612A21021808012A22326274B5
:10436000E85C1822BECF369E098DC7A62CB6B48550
:104370006985878D8763A9C6A6AE6474A11A431A9E
:104380004119E219C2041CE01A01C819C4182122FB
:104390004222222A425C622AA0436064A26CC4FFCB
:1043A000FE5C0AA60A95C585A4754475A585475087
:1043B00059AE380EBE59642763C37CA57CC78D4CAB
:1043C000F7D4091001180B94CF3164290321039508
:1043D0006B0218148B84CA5B864B4642E442E5426A
:1043E000C44B64434353A3BC4814C45C045C0553EE
:1043F000C45BE24B434B413AC13AE13281C22D3AB0
:104400006342E544181FF7FF95EDA66A8DA67D254A
:1044100085848D67856732A5744A74498528220191
:104420001A201A22BE29B8180A022A6222211A0169
:104430002A423C181E825C225C625C615C625442CF
:104440006463FFFF6BCCBECF9608752375637564FC
:10445000D7345129C0081412DFC6F874C874856CAB
:1044600065852685488D878D88F7BBC01811B5B442
:10447000FFDF292420E2958A8D4A8D2A7469C018AD
:104480000D454B2542E53AC44B4443034BC01D5CEC
:10449000055BE4C6180EA353A24B634B824B6243E9
:1044A000013AC1C2482A4132613AA24B25C69AFF5D
:1044B000FEDF5B8DA88DC9854564E37D44BE7443F2
:1044C0000832E5642A4B25320221E11A221A01BE84
:1044D000182B1A012222224122622A42328222A170
:1044E0004C2043E043E04C204C214C01F7DEDEB78A
:1044F000C6F59E4975237D817D648D8ABE1902E8CB
:1045000019F7FF6CA874E6748474A57CE68D679532
:10451000A89E09B66CD6F6FFDFC0181AC616FFDDD6
:10452000F7DF844F7CE97CC96C4864285BA74B4665
:104530004B264AE542C019021DA453E45B021F53F7
:10454000C453C45BE3061AA2C6182E6243423AE182
:1045500032A13AC243025364EFDDF7DEBE747D0937
:104560006CA664A36CA47CC5ADEE434332E6748EA6
:1045700032813A831A011A02B629011A020A182452
:10458000422A822A82328332C253E243603B203B7A
:104590002043803B805C4442859550EFDCA64D75FE
:1045A000236CC2C4181C64AEB0852DB6556C8974DA
:1045B000C46C8474E47D258566858695C6B666C61A
:1045C000AED81CFDE73B0679011815F7DFBDF5EF06
:1045D000DF964632E464276C68642764075BA6C0F4
:1045E000180846430542E44325B01808E45C055327
:1045F000E44BC3C21CE353C3CC1AE30A1AC3C22858
:104600002C623B213B01434253A4BE6DC6CE8D2B91
:10461000746A53C5436274A684659DAA8D093B07DD
:10462000748D3A634AC32A4222232A630210141A61
:10463000222242226232A32AA232C33AC132C032BB
:10464000E02B1443213B882D3301848C29C04BA5DA
:1046500043848DCC75255C826CA26503752475043A
:104660006CA56C8374E474E57D0574C474E58D6594
:10467000B60CFFFDB61BE719BA181ABDCF3C43476D
:104680003B2463E88D0D432332A16C276C486C27D3
:1046900064275BC6C02808054B0543044B65C01A58
:1046A00054C019B8280AE453C45C045BE45C0402F7
:1046B000283253C44BA24B624B6253827CC7BEACC0
:1046C000AE8B8DC56C895BE643235B47F7FE858A1D
:1046D0009D6A43055BA742E519602A4122422A836D
:1046E00032832A061CA332C3C21822C332C13AC085
:1046F0003AE043405B8243614B226C855BA563A635
:104700004BE33321334085867D6164C1C43808C3DF
:104710006C836C636CA4BC8808C474E47D25B650BB
:10472000BC2901182C9CADB5AAA52F3A842AA13228
:10473000C33AE13AC032C122406C476C07746864E6
:10474000276407536653264AE543245BE55BE5543B
:10475000AE29BC1F5BE45BC35BE3063CE35BE3C2E7
:10476000103BC353A353A35BC3B62AAE6995C5855B
:10477000A45BC564075B64FFFEFFFE84E5752863E8
:10478000C65B4642E532224A803AE132A32A8232AF
:1047900083328232822A82226132C243C8334B4042
:1047A0003B012A8032824B22848674456C27532336
:1047B0005C02438033207D647D40754264A164A126
:1047C0006C42642174C37CC46C6374A374E4956903
:1047D000BE290110B8F7FF854A226122402A613ABA
:1047E000A13AC163E532802AA154E04D806E405564
:1047F00022AFA46563758AB78996655543A78386FA
:104800004275E59645B74FE7B3A62A3A25BF8432ED
:1048100023DF73BF666D22FFFDDFC9D7E4B729D759
:104820008DF7F8EFD2DF8CCE7632C26C47C76A8E36
:10483000E4968454426D428E277CC86D24654165A0
:1048400022644443834BE33BA14C6143806CE429E5
:10485000C1DF8A18C09DACF77FEF5EEF7DBE1964A3
:10486000C85C084C41440322C2858744611B403226
:10487000C21241230133E343C529C33B06444533F8
:104880000322A233C112C01A413C02124813118103
:104890003BA465844C8333648D90752DE71CF7DF52
:1048A000D01090C6F332A186C34D602BE1B7A53C72
:1048B000C02A22552196AA976296E434C15DE0751C
:1048C000E05D02A606FFFD6CE85AEAAECE84CDBFDD
:1048D00045D7A9DFC7B6C6CF86BF878D2CFFDEF7C9
:1048E000F754635462BF0A33029D6EC7C6BF048E7D
:1048F00081866385E3CF6A8E6254E45C619D496C76
:10490000E29565DF905CC1DF55BE6DDF8D31E29DC4
:10491000C87BEEFFDEFFBFEF9E6C88A573E777EFE5
:10492000DA64C2BF0DD7F7444223012B402B413B31
:10493000440A101875493BC23244090222612AE335
:1049400033C11AA02B4222211A8134481155213B30
:10495000A33BC13BC14BA34B8A5C4DCEDCBE100CCC
:10496000B618CF3A226065A08E622B101A3CA05C6C
:10497000A584EB7DA05D806621764065A186E49FDD
:104980008475E0A7285528933B0363E66CC4EF9732
:10499000D767FF9DBF84E7B1F7FAAF06DF76FFFD6B
:1049A000AE635CC56DE564C14B244322AF226D62EA
:1049B000B78385E53BE05C444421B7077563A625D2
:1049C000EFBCD70CAE4BAE8CEFECC64EE7923A2361
:1049D0005320E7CF9CF1F7BFF7DC320495CF2B01D2
:1049E0007CCA4C016524640A8D8E33A144C3758D45
:1049F00022A122A1650243E23AE23A671A021B4170
:104A0000346034824D425BE943E409A10A807DA60B
:104A1000232054A164CA52EDD75CBC1012D71E8D5E
:104A20001784318CCC54813460558165612C00FF32
:104A30000023615D033C8254E3DF7723A04D015DD9
:104A4000E08E63C7C5AF28AE4C3264DFAA4A66F772
:104A5000FCD7A8CF6E5CC0C74AAF833AA0EF94D70B
:104A60002EDEF6CECD7585B7453B215365A6CAE748
:104A7000D67D264CE18DE6CF4CE791658374E3F754
:104A8000DEFFFB9567D72FBEABDF4DF7B5FFFD42CD
:104A9000E3E7AD6CC329C0AE2C95649D3175066407
:104AA000677E253B21EFBCCF754460750764277D89
:104AB0002C436C5D653BE27D295D25216208C06465
:104AC000A834423C422B8253E732A65DE164E333D3
:104AD000624CC33B814BA8F7DFA5BBFFFFCE9BBE5B
:104AE000BA7CD163EC74AB21E033806D4144604407
:104AF000A22AC144823402346065C26DE366017645
:104B000042C74EBF83CF85BF4829C3B7C46BCAAF66
:104B10008185E3A6879625FFDEEFF595ABE7EFDF0E
:104B2000E69EE87601D7E5BF62432264258EC30086
:104B3000FF00E7A9C713546575C0336265627582CB
:104B40009E83BF075BE17C84FFFDEF794A83F7B763
:104B50008D843AA33AE3F7DAE7955442FFDD6C2AF5
:104B600019A175C62340AE4EF7995CC274AEE7BE7C
:104B70004BE45C635D4509801AC122E022A129242F
:104B800031E3228212C023201A603C221941756948
:104B90004C8165437CAA32E34349F7DFEF3ECF3CCB
:104BA000FFDFFFFFCFF9D6F84A8319C04CA26D830F
:104BB000452154836C47646544E086C4A6CB9723A3
:104BC0007EA097248F22BF6EA6E6756729E33B017E
:104BD000CF31CF4FFFFFDF19FFDEFFDEA66AFFFFF9
:104BE0009F22FFFDB6AE5D228EC176203B0263E3BD
:104BF000A740CFC2A7C164E3862575E5A5C9EFB478
:104C0000CED2F7DCF7BBBF2BAE85A571EFD2F79BF9
:104C1000E770BEE81220954EC70819204421644968
:104C20003A24F7FC4BC44BC63B61850FC751334355
:104C3000100E7E854CA13AE43AE132C10A202310DD
:104C40001032425C082AC2234033422BE06D812B94
:104C500010B019C02B6032C36C462A425B8DC71856
:104C6000EFDC5B4FF7FFE75D5C4B95273AC33A6299
:104C70005D426CA84CE1336195E57E4265E086A714
:104C800076639EA3AECCDF9886E3AF28BF334B4755
:104C900052E64246BF46EFB5FFFEEFD9EFF8CEB879
:104CA0007C6CFFFFBE4FF79DA74365434D416D41AF
:104CB0003A635343A724AF2664E33361AF45A74467
:104CC0006D22D7ABFFFDDF4EC688DFC6CF46BE4E96
:104CD000A6483201444143224AC57D248E0632C192
:104CE000A62BAEAD21819E31654243E23B82540446
:104CF00022413BA333C144C323624CE24D2223C073
:104D000023103843434B0611203C4243C47E4144A8
:104D10006332C52A043B425C475B6AA5F2EFBF6C75
:104D2000AAC69884AB42AC53E8642B95E933431987
:104D3000412BC034A14C61438134104A34602BE0D4
:104D40003CC06581762286C076C286E28701B7A222
:104D50002A63854B9D0DB745FFDEFFFDAE8CC7A2D4
:104D6000DFB6D74DC782BEE7E7CEB766A7279E2638
:104D700096C543035BC38F027DE375A18601B6E44C
:104D80009E8086856D10FCD78AD74F9E08F7D6A6E1
:104D9000C9ADB68CE78D0895EA4BA13203A7454310
:104DA000825BE77CC8EFF54BA5C696B64E4C6444D3
:104DB00062544444C34C4654836640232045411BFF
:104DC0004034413BC33B023A4522203AE423203C95
:104DD000233BC31A012168A61164A65CE74C82C676
:104DE000D84BA895CCCF354229434B3303EFDD6C2C
:104DF0000B21A02BC154E055815C8323C04D206E54
:104E000022236034C055606EC18F21B7A1AEC38626
:104E1000A229E3432486059F409F60FFFBA6E9AEDD
:104E2000C742C0AF43E7E9FFF6BEEC97828F22444A
:104E30002323024B276BCDFFFE9E83962AB69165F6
:104E4000419EE4B76686238507DF34E773F7BEC665
:104E500015C70BBE4EBF4A53078E275342A605BF48
:104E60000ACF9231C5EFBE95318509EFBD4C045490
:104E7000829F0A33E32B8176462C213C4055035513
:104E80006402122C103211E03A061A80330364A433
:104E90002B011A608E4D6C0942E59E112AC2230235
:104EA000540664C76503B6E98DA922026C88FFFE2B
:104EB000E79C19813C0155108221A243835D844403
:104EC000824D605D627EE34DA166404D40B783C771
:104ED0008B53E33A257B4E8E63658286629E84BF48
:104EE000C4B788946EA704D7A6EFC66E816E6176AC
:104EF00040BF6CD74F4B855B4AF7DD7E02D73255FA
:104F0000616E6286C35DE3866075C7C7A7B6A7F703
:104F1000D8CF09EFEEFFFDF7D784493A4275264214
:104F2000C28EA56C6A6AEDEFBE7D4742A6F7BD64EE
:104F30000A4CC633C3552244012C101A65C61B21E6
:104F40001A414C642B41442334205367ADF6642A44
:104F50002B6233C075102C7DC5338022419D941A7D
:104F600063E79C8E4933453322B6137CAD32612111
:104F7000A2D6BBDFD619804D6053E65B4953C455BA
:104F80006134100A5E0243A5452134A02419CA10D9
:104F90006BC1768129E36BECC6535601976165E1DD
:104FA00086E0B7A49666AE4B9F01C7E68F217EA030
:104FB000B784F7D39F01FFDC53674B07FFDE96648E
:104FC0008E065D607EA66562A6E49683C6C8DFA6EF
:104FD000EFEBEFD3FFDBDFCBD7CAD7E8BF09DFB2F8
:104FE00065032140AE717523E7B863C84C6121C1E8
:104FF000F7FC33634CC265A05D224510443CA134EC
:105000002109C04C6423C055232B23128021A222E6
:105010000122021A012A218568CF39E7D829A3F78E
:10502000FD74C7BE57F7DE856CCE99DF135C85CF64
:10503000B829035C2B6C664B066CE519E443044D00
:1050400010C0554055431340446133E23C613C601D
:105050005D6044C17E2529E34285AECBBF4F7D24F0
:105060007E216E017EC531E49F02E78F95A8D7337C
:10507000B6EE8E828E67F7DFAE694A8542429E8227
:1050800096C8AEE2D7497E208EC08F03AF42C78359
:10509000EFB2FFFBB747F7D6BF07F7B6BE8FCEF22A
:1050A00029E2EFF83A44C6F0B688FFDD4A48C70D5A
:1050B00042865C8933E14CE04540346255E345600B
:1050C0001B0254873C604BA52BC133A254E52A42F6
:1050D00029A243233B4353E753C84383FFFFB5B79C
:1050E0003AE75424C7278DA395E8F7DD960A6CAA02
:1050F0004C43AE6A1120C7AD53663304734C440170
:105100004D1654822B601B10842A613B243381345A
:10511000A05DC06621540629E47B8D6E4176217620
:105120002197018EE0B783EF5B8E45760265A07E06
:10513000839EC8B76AFFFDA664BE904B2442C58D0E
:10514000E69EC275E2C7A57640DFD097409EA2CF0B
:1051500084EFCEF798B60DC690EF94E71BFFDEDF25
:105160001ACE93AE334AA5D6F1E757FFFD9CD2AED7
:105170006F9570CF3B5D433C232BA22B8123804D49
:10518000622C2055E30A8012402BC01B102C3B815F
:10519000438419A033A343E3086122A033627E0550
:1051A000A6323AC3E7B8D755E7F7D7D2D7AA84A82B
:1051B0005CC2B6A68DE121820910184B6653475395
:1051C000273C407D663C21A66F1AE23BA14BE623BB
:1051D000801B108A44A255613AC442668D6D55A069
:1051E0005DC26E807E209F626D45BEAE762385686F
:1051F00095CA6DA54D40CFACAEC8A60A8EC7430474
:105200002A81BFA59E0ADFEC6D41E7D496C5E7D0A1
:10521000EFF2BEABD76CFFF7E792FFFBEFB6BE1520
:10522000FFFCD6D9DF395B4563A5E779A649EFB81E
:10523000EFB83A8285E75C465CE44C834D0134224A
:105240006E6144845D83332413203D012B615CC473
:105250001A2064A619E02A6122611AA11B10A09EDF
:105260008CE7FDF7FB52CCB6B3FFFEEFFDBED0FFDF
:10527000FC96092AC08E2686628D2B1882D65B5238
:105280004832A47C4BAD96F7FD3441126033E13ACD
:105290008423012B821BC03C0129E37B8D75643C78
:1052A000A196A6352065A26DC042646DC16E4076A0
:1052B00023872454E17506EFBE6D415D0476623AA2
:1052C000E43AE3A646AF657EE0B782C728BE6BA787
:1052D00024C70EB705F7D2AE2A9E21FFF7FFFE8C3A
:1052E000CDB62AC6AAFFFF42C5ADAF73E9EF9AD784
:1052F00071AEAA3B43438132C1FFDF5D624500FFCF
:105300000055414D413C843C2233E26D0D45024441
:105310000534221240124022A01A01430522A001A6
:10532000407D4B33819E90D6DD3285BEEFD733CFA3
:105330006C95E3C7C66D047DE309602B8195AE6370
:10534000CBAD344B449D51BE7495914C2354212BCD
:105350008011802BC12B6044815C2829A4FFBF658C
:10536000614DA05DA255C055C05D617C6EDFCEB6BB
:10537000695D61A7488EA385A5C6CE758265A15CCF
:10538000C142E533017E838EE176419F61B783B7E9
:10539000659F03DF90CF88E7B0DF93EFF8FFDBE78F
:1053A000B05327E78FA5D0CF8C42456CE83A82B541
:1053B000EC74E89D5142E5542529E375C466013437
:1053C0002096CA85A5750B2B416DA4238022C1129E
:1053D000401AA1230164E5540732C2330233444C1E
:1053E000845CA32B20BFADF7FE32047DE6D736E701
:1053F0007CC6EA8E21BF268628850D42E2854410B0
:105400001A5A28C678118022C03C412A415483761A
:10541000065D403B41236023601B106C42E47BAD82
:10542000FFFD3C612C0134601B40446064C48DCCA2
:10543000862475E3D73175A65D216DC3DEF96CC195
:105440006DE08EA73A6443637E627EE1C77196C2C7
:1054500086C17EA37E418DE0B7439EA5EFD5BF2ACE
:105460006521CF4D4AE3DF89CF0DCFA732605BA521
:105470004A84CF32FFBFEF5C96075B6442495DA26E
:1054800044E14CA21AE045104244C244A21A805C96
:10549000C42B4011C01A614C4374CF21622A82335D
:1054A000627DC43B8019819641B6F1766129E27D27
:1054B00049E7DAD77D75E165808DC62BA2E7952295
:1054C000C1432873CB530711A023181F4C6275A545
:1054D00065231A4033C11A6033012C2022612A430C
:1054E00095102A610A8044C23441681083E23A85EB
:1054F00085A475C66DE1654175C2F7DCDF1A94EBD2
:105500005D615C647E4132036BAA5D609EE1A781B0
:1055100086C1BF867E83D72FE710D74CD7A89E259C
:10552000EF79A705BFA453C3BF07BE8DDF9043A289
:10553000324131C2636854236C666D026C85B5F8E4
:105540009E306DC4550144C14BE81AC00A403C036B
:10555000336312604D043440232012202B4042C498
:1055600023202B2064864304D77AEFDD6DE24310BD
:105570000821E36D82A72366101C3B609E469E8235
:10558000E7902AA3CFAB22622AA24D0333C15386F0
:105590005C0733C12B10D454E422C2542665446402
:1055A000C54225740C33411AE02B8133A045627645
:1055B00002B594558254626E034C8144C1CF0E767D
:1055C00062AE8C86C564857DE129E17427B7848647
:1055D000839F43A6A96E4333A13BA2EF5BCECEE7E8
:1055E00095AEA5FFFCEFB7F7B9840DCF89BF0D4C81
:1055F000E09E48D7186367D6D7FFDF8EA6A68B6CD0
:10560000A99E0B53E57D4B5D631AA023211A403BF5
:10561000C3126033C13380338122E143C34C44223F
:10562000014B2529C154664483656432E2DFB254DC
:10563000E38E681902CF6C4C85EFEB3C6354A47E7B
:10564000457E04116243A33AC343632B2111803C7E
:105650006054E23C822B4154233322746A44013A61
:10566000C4CE3743A32B022C201B185B234133A24B
:1056700054A5F7DB4D017D4C3CE25D6444A15D81A6
:10568000554275A26D848E267E6121805C444D0258
:105690003C816D819F257E405D817562AE686D2184
:1056A000B763BE6E7E01AEA8F79CCE97DF509E0911
:1056B000FFD7D74D958A6C096426DFCCBE8ADF57A9
:1056C000EF3DE79D3A65EE1009E01A404C44236136
:1056D0002C10324CA423811B202B6222E019803B2A
:1056E000A421C542E24AC642E633E25D2119207692
:1056F000235D42F7D019016C4BBED74CA243C27E4A
:1057000026C74B23101409603B025367E6BC1161A6
:105710002AA12B603C604C022B1433E20A10783A29
:105720004454C32A24F77B232011A02B0254C133F5
:10573000A133A243053B80BE917D2954A244C245BA
:105740000254C39EC8C70D64A57EC18EE329A16C17
:10575000857E61A7087E4176618EE286E2D789CF99
:10576000469683AEC6F7D8EFB8C70BF7B8AE4CEF86
:10577000CFD6F3DF4EF7D9FFFC4AA442A5EFD5C63A
:10578000D4F7FEFFFF7BEE31A54CC144623C801292
:1057900002116222812B103E2362BEF84C24332179
:1057A0002AC254061941326442654AC74C629E6857
:1057B00054444C0375045CC132E111215D227DC16A
:1057C0004C246D4619C296C596697DCA2AA23361DA
:1057D0002B021A2023102223603C8022A15482191C
:1057E000C12A6263C839E5A5AF2B2119A11B20335B
:1057F000A3232052C521423C10203C616CA92B817F
:105800002BC15D84A62DA5CD54237D299E478643BB
:1058100029A164A3A64BAF067E182CAEA77E64A771
:1058200045D74DBEC6BF26B6C8C748CEADCF2BDFC5
:1058300089DFCEF7D6DF15F799DF727CC7B5D02A9E
:1058400003A60DEFBBFF01103452AA320475825536
:10585000614CA34CE354E44CA30AC055224C85236D
:10586000C02B821A63112133215BE94B054AC61212
:10587000A09DEBA66821822BC0754112101C10E17F
:105880006D045466C7B885C854C23BC11161226219
:1058900064E51A8165251AA012108609E011E0114D
:1058A000C033811A022A41324429A419C01A612244
:1058B0004122A11AA022A243E37C8B12202AE07588
:1058C000094CC2344086E27D692242656275A49F1C
:1058D000635C833A046CA48E6255603C024C414484
:1058E000816D43F7CD75A2DFC74320DF1396A2D7A2
:1058F000CCD76EE757EFF6DF16D76CA5CC4242F750
:10590000F73202BEABFFDEFFFFA64D5B0732045D40
:10591000054D6034213C822BA14D024D0454E2021E
:10592000103A33C175285C46194143842A63430504
:105930003A25544733E17E6632234BE6760734211D
:1059400019213AA58D531A633C417DAB752B22A3D7
:1059500055032B811A01098019621210C422A23A40
:10596000A519E03BC122C222012A4453081A410969
:10597000402A413BE23BE12B014AE55C6633227D54
:10598000A5746875E83420128085C65C8644034C93
:10599000E16DE23B65320365264D602C605D437E20
:1059A00003BEAB74C5F7D2CECBD7CADFC8BF64D7AE
:1059B00046DF6DDF8EFFFCB62FDF36FFDC74092A71
:1059C00020FFFC42A49629B6ADCF94AEB0B6AD424E
:1059D000A56D267E462C60552555643C227D4A4C9B
:1059E0008054867D0D7E032B402AE032C211605B1D
:1059F000E542E532854C615502446121805D894C68
:105A00008432A210E12BA27E265C6885CCA6CF1141
:105A1000E14C2422A1126022E243432B6144221A6A
:105A20001429E21A187133A15BC721C33AE5220396
:105A300043855BA819A04C022AC2324432E12241BC
:105A400012A095AE4385228044E033823C6122213E
:105A50007E8576226CE32A63652566424CA054E17C
:105A6000A6E78E43CF4D8DE28DA2CF26EFECCF86F9
:105A7000BEC59E61E769F7EF846CDEF7FFFAFFDDD4
:105A800021C0FFD95B855363DF52CFAF44039F270B
:105A900029E23AC23C82A010FBA59F0AF7DAC6B8F9
:105AA0005CE2856C2A832BA03BC33B83330221A29B
:105AB0007D4642835B8875E4BEE74C8219407D8653
:105AC0002B821B2110C15386BECB22C10AA04C04DD
:105AD000442211212AE122C0338222C02AA211804D
